:0905D100C2947F01B1F3D294221F
:0705EC00C296D296C29622CE
:0905DA00BF0103D29322C2932257
:1004EA00EFB40700503B9004F625E073A104A1087D
:1004FA00A10FA113A11AA11EA125C2908002D29018
:10050A00C291C29222C2908002D290D291C2922209
:10051A00C2908002D290C291D29222C290D291D23B
:02052A0092221B
:10052C00E4FFC297EF25E02417F8A680EF25E0241E
:10053C0016F8A6A0D2970FBF08E87B007A007916B0
:01054C00228C
:0A05C700E4FF91EAB1DAB1ECA1D132
:0905E3000000000000000000000F
:1005B500032E0D0A0002262000022A000002280050
:0105C5000035
:10057C00759850438920438780758DFDE4F5A8D28A
:04058C008ED2992250
:080003008F993099FDC299228A
:1005670051C86010F5993099FDC299740129F9E4D1
:050577003AFA80EC22BD
:1005A300438910758AA4758CFFC28DD28CD2AFD2C9
:0205B300A9227B
:1003A700780D7C007D007BFF7A0579E37E007F0670
:1003B70051A278137C007D007BFF7A0579E97E00E6
:1003C7007F0351A2B17CB1C7B1D12095FDB12C8B70
:1003D700088A09890A90000151E1FD51C8F52CED01
:1003E700F52DC3E52C64809480AC2C5022EC311899
:1003F7007B097A0079C8783A110D3151C3E49FF52A
:100407002DE49EF52C7F2D1103AE2CAF2D8015AD5D
:100417002DEC31187B097A0079C8783A110D3151E2
:100427008E2C8F2D7C007D0A710EEF2430F513AED4
:100437002CAF2D7C007D0A710EED2430F5147B0066
:100447007A007913B1677F0A11037410250AF50A38
:07045700E43509F50961CF4E
:02000B00A190C2
:10059000C0E0758AA4758CFF0529E529700205283D
:0305A000D0E03276
:10054D00EF1FAA0670011E4A600F7DC8DDFE7D7883
:09055D00EDD3940040EA1D80F783
:010566002272
:0705F300AE071FEE70FA22B3
:10000D00EC4D6011E8497017ED33EC3304600DE4ED
:10001D00FCFFFEFD22E933E8330470F80201BD1246
:10002D00018858046009E4CC248150062850090247
:10003D0001C72840030201C4C0E0EB4A7044B980F7
:10004D0006D0E0FB0201B3EF4E701CBD8008EBFF44
:10005D00EAFEE9FD80EBE98DF0A4FEE5F00200F685
:10006D00E9CDF9EAFEEBFFEF89F0A4FCE5F0CE89CE
:10007D00F0A42EFFE435F0CD89F0A42DFEE435F08B
:10008D008067EF4E7005BD80D780C3EF8BF0A4ACB9
:10009D00F0EE8BF0A42CFCE435F0F8EF8AF0A42CF4
:1000AD00E5F038FCE433CB8DF0A42CFCE5F03BF807
:1000BD00EE8AF0A42CFCE5F038F8E433CF89F0A4F7
:1000CD002CFCE5F038CF3400CE89F0A42FFFE5F0FD
:1000DD003EFEE433C98DF0A42EFEE5F039CD8AF055
:1000ED00A42FFFE5F03EFEE43DFD33D0E0FB5007CD
:1000FD000BBB000F0201C7EC2CFCEF33FFEE33FE00
:06010D00ED33FD02019F2D
:1001130075F020800E75F010800575F0087D007E67
:10012300007F003392D530D503120344EC334010E3
:10013300EF33FFEE33FEED33FDEC33FCD5F0ED2270
:0E014300E5F0247EA2D513CC92E7CDCEFF22AC
:10015100EDD2E7CD33EC3392D524814006E4FFFEA6
:10016100FDFC22FCE4CFCECDCC24E0501174FF8005
:10017100EDC3CC13CCCD13CDCE13CECF13CF0470A2
:07018100F030D5DE0203445B
:10018800E9D2E7C933E833F892D5EDD2E7CD33ECBD
:0701980033FC5002B2D52236
:10019F00EC30E7100FBF000C0EBE00080DBD0004C1
:1001AF000BEB6014A2D5EB13FCED92E7FD2274FF6D
:1001BF00FCFDFEFF22E480F8A2D574FF13FC7D80C6
:0301CF00E480EFDA
:0300000002045E99
:0C045E00787FE4F6D8FD7581300204A51B
:1001D200E709F608DFFA8046E709F208DFFA803E0F
:1001E20088828C83E709F0A3DFFA8032E309F608FC
:1001F200DFFA8078E309F208DFFA807088828C8364
:10020200E309F0A3DFFA806489828A83E0A3F60817
:10021200DFFA805889828A83E0A3F208DFFA804CF1
:1002220080D280FA80C680D4806980F280338010C8
:1002320080A680EA809A80A880DA80E280CA803331
:1002420089828A83ECFAE493A3C8C582C8CCC583A9
:10025200CCF0A3C8C582C8CCC583CCDFE9DEE78079
:100262000D89828A83E493A3F608DFF9ECFAA9F0F8
:10027200EDFB2289828A83ECFAE0A3C8C582C8CC4E
:10028200C583CCF0A3C8C582C8CCC583CCDFEADE67
:10029200E880DB89828A83E493A3F208DFF980CCC9
:1002A20088F0EF60010E4E60C388F0ED2402B404C2
:1002B2000050B9F582EB2402B4040050AF23234569
:0602C2008223900222736A
:1002C800BB010689828A83E0225002E722BBFE0234
:0902D800E32289828A83E4932267
:1002E100BB010CE58229F582E5833AF583E02250D2
:1002F10006E92582F8E622BBFE06E92582F8E2221C
:0D030100E58229F582E5833AF583E4932235
:10030E00C2D5EC30E709B2D5E4C39DFDE49CFCEE0A
:10031E0030E715B2D5E4C39FFFE49EFE120352C32D
:10032E00E49DFDE49CFC800312035230D507C3E428
:06033E009FFFE49EFE2279
:0E034400C3E49FFFE49EFEE49DFDE49CFC22CA
:10046A000203A7E493A3F8E493A34003F68001F2FE
:10047A0008DFF48029E493A3F85407240CC8C33393
:10048A00C4540F4420C8834004F456800146F6DF62
:10049A00E4800B01020408102040809005B5E47E38
:1004AA00019360BCA3FF543F30E509541FFEE49357
:1004BA00A360010ECF54C025E060A840B8E493A31E
:1004CA00FAE493A3F8E493A3C8C582C8CAC583CA49
:1004DA00F0A3C8C582C8CAC583CADFE9DEE780BE01
:0105C6000034
:10035200BC000BBE0029EF8DF084FFADF022E4CC8F
:10036200F875F008EF2FFFEE33FEEC33FCEE9DEC58
:10037200984005FCEE9DFE0FD5F0E9E4CEFD22ED9E
:10038200F8F5F0EE8420D21CFEADF075F008EF2FE8
:10039200FFED33FD4007985006D5F0F222C398FDD9
:0503A2000FD5F0EA2276
:00000001FF
